:0800000055C0FECFFDCFFCCF7F
:10000800FBCFFACFC9C3F8CFF7CFF6CFF5CFF4CFF0
:10001800F3CFF2CFF1CFF0CFEFCFEECFEDCF7265C8
:1000280073203A2025660D000D0D20202020202069
:10003800202020203D3D3D3D3D3D3D3D3D3D3D3D5C
:100048003D0D202020202020202020203D3D3D2047
:10005800204D617468203D3D3D0D2020202020204A
:10006800202020203D3D3D3D3D3D3D3D3D3D3D3D2C
:100078003D0D0D0001004E554C4C20434F554E543C
:10008800203A2025640D000001002D4E414E00004D
:100098002D4E414E0000010064017C000100470420
:1000A80090000000F894EE27ECBBF1E0FBBFEBBF3B
:1000B800E5BFF8E1F1BDE1BD8DE0A2E0BB27ED931E
:1000C8008A95E9F780E094E0A0E6ED930197E9F7D7
:1000D800EEE9F0E085919591009761F0A591B591D1
:1000E80005901590BF01F00105900D920197E1F779
:1000F800FB01F0CFEFE5EDBFE4E0EEBFC0E6D1E0F5
:1001080025C0E6E0E8BBEFEFE7BBE0E0E5BBE4BB1A
:10011800E2BBE1BBE5BFEFBDEDE0EEBDE0E0EDBD6C
:10012800ECBDE7BDE6BDEBBDE0E1EABDE0E0E9BD61
:10013800E8BDE0E1E9BFE0E0EBB9E8E1EAB9E6E80B
:10014800E0BDE0E0E0BDECE0E9B90895C4D192D3A8
:1001580020D22AD2D6DF84D2E0916501F0916601DF
:10016800A281B381ADBFBEBFC081D181FF91EF91A4
:10017800BF91AF919F918F917F916F915F914F91B7
:100188003F912F911F910F91FF90EF90DF90CF90AB
:10019800BF90AF909F908F907F906F905F904F909F
:1001A8003F902F901F900F900FBE0F901895000052
:1001B800FECFFFCFDCDACAD6CCD6CED6AB85AA2303
:1001C80012F0CFD61CF4E0E0D9DAD3C1CFD6BED82E
:1001D800309781F4CED6D0D6C9D6D4D6C7D60D900E
:1001E8001C90C4D6B3D83296DF01CFD6CBD6D0D6A2
:1001F800D1D6BFC1B6D641F4ACD6CFD6B7D6D1D6B4
:10020800B8D6BAD6C7D6B5C1D4D6309769F4D4D63D
:100218003296D5D6A083B183CFD6D1D6B3D6A9D6B8
:10022800A5D6B0D6B7D6A5C1A1D6CCD68FD6C1D6BD
:100238002E173F072CF4D801C5D62F5F3F4FF7CFB5
:10024800BED60D931C93D801ACD6F801A6D691D68C
:10025800D8011296ED93FC939DD68BC18ADA00E003
:1002680010E0B3D673D89F01022E032A31F0D901CA
:100278002D913C910F5F1F4FF7CFF80181DA29C10B
:1002880076DA77D669D6A985AA2322F06FD6A4177D
:10029800B50714F07AD667C2E1E0F0E0E417F50795
:1002A80041F48DD68FD68BD612966FD66BD687D65D
:1002B80039C04FD6309741F482D684D680D646D8F6
:1002C800DF0144D87CD62EC051D64A175B0781F48B
:1002D80076D6129677D673D6129638D83296DF012C
:1002E80035D8AE81BF811296ED93FC93F8013BC2DD
:1002F80066D668D62BD62DD62E173F072CF4D801F4
:1003080061D62F5F3F4FF7CFD80112961FD8DF0174
:1003180032960F01FD013CD6F80102801380D80106
:1003280015D8D001ED93FC93D80112962ED62AD673
:10033800D80128D6F80117C21CDA3ED68F0106D696
:10034800002E012A31F044D647D603D60995E0306D
:1003580009F405C0D80136D62F5F3F4FF1CF3A9345
:100368002A933DD63CD626DF0BDAFEC12A971A938C
:100378003AD6AB5ABF4F3AD6AC85BD85A457BF4FC6
:100388001197AC87BD87EE85FF853197EE87FF878C
:100398003196A889A0832ED61196E989EC932AD69E
:1003A80011962AD627D61196E0E8EC9310E01D3175
:1003B80028F420D6119620D61F5FF9CFEC85FD854D
:1003C800E983FA83EE85FF85EB83FC83E0E0ED8328
:1003D800EE83EF83E887E987EB85EA87FE013196AC
:1003E8000ED659D11881629608950F920FB60F92C2
:1003F8001F922F923F924F925F926F927F928F92AD
:100408009F92AF92BF92CF92DF92EF92FF920F939B
:100418001F932F933F934F935F936F937F938F9384
:100428009F93AF93BF93EF93FF93E0916501F09192
:100438006601C083D183ADB7BEB7A283B383E2D5CB
:100448000FD1E0916501F0916601A281B381ADBF42
:10045800BEBFC081D181FF91EF91BF91AF919F91B4
:100468008F917F916F915F914F913F912F911F9144
:100478000F91FF90EF90DF90CF90BF90AF909F903B
:100488008F907F906F905F904F903F902F901F902C
:100498000F900FBE0F90189508956DD9F894BED59A
:1004A800A0916501B091660115965FD7A09165018D
:1004B800B09166011496E2E0EC93E0916501F09149
:1004C80066019DD553D18F0187D55DD18EDF789494
:1004D80059D926960895A0E0B0E063D7EF5FFF4FA3
:1004E8006F4F7F4F72D731976040704008952C97B7
:1004F800E6E6F6E666EA70E4E887F9876A877B87C6
:10050800EAE9F9E969E970E48ED592D596D59AD5E4
:10051800A885B9858A859B851FD88FD598D5A030A1
:10052800E0E0BE07E0E28E07E1E49E0749F4C29AE4
:10053800F894E6E2F0E063D571D58ED5789401C0E1
:10054800C298E5E0F0E060E070E019D7A6DFA0E02F
:10055800C199A1E0E1E0EA2711F4C19801C0C19A6C
:10056800F894E0E3F0E04BD580E079D422967894D3
:10057800CCCF2C960895A0E0C399A1E0E1E0EA274A
:1005880011F4C39801C0C39AEAEFF0E038D567D6F2
:10059800F2CFEBE7F2E033D5E3EFF1E030D5E7E671
:1005A800F1E02DD5E4E670C1EFEBF2E028D5E4EDFB
:1005B800F2E025D5E8E4F2E022D5E2E365C1D9D836
:1005C800FED41496FFD401D514962D913C91F801D0
:1005D8000184D9011996EC91E01518F0E1E0D0D822
:1005E8003DC0E0E0CDD83AC02297C1D800E010E085
:1005F800ADD437D533DE9F010024021603066CF50F
:1006080040912D0350912E03042E052A31F1DA0171
:100618002BD5EE83FF83D3D41596A2D631976040AD
:100628007040A8D6A6D4A581B6818781908599D82F
:1006380070F022979BD41496DFD4CED412D520DE46
:10064800E883F98314D5EA81FB8114D522960F5FDC
:100658001F4FDA014D915C91D7CF90D82896089515
:100668008AD805D5FBDD8F0100240016010684F425
:10067800A0912903B0912A03F7D4E0936501F09380
:100688006601F5D482D4BBD4F2D4FADDF3D401C028
:1006980088957BD808956FD800E010E0A091650395
:1006A800A330F0F5ECD4E95BFC4FEFD44FD670D40F
:1006B800E6D4E75BFC4FE9D4129648D669D4DFD478
:1006C800E55BFC4FA0E0A083DAD4E45BFC4FA0E03C
:1006D800B0E080E090E0A083B18382839383CFD49D
:1006E800E05BFC4FD2D41996EC91D001EC93D1D4B5
:1006F800E75CFC4FBF01C3D4E95BFC4FDB0142D48C
:10070800B6D4C7D4EB5CFC4FB5D4E03049F0B7D4CD
:10071800E95BFC4F8F01E0916503EF5FE0936503B0
:10072800F80130D8F1C323D80FEF1FEF2FEF3FEFB9
:1007380043D4AF01042E052AA9F02297DA0194D4F4
:10074800E883F9830F5F1F4F04D4A881B981EA17A2
:10075800FB0719F49801229605C0DA014D915C91C6
:100768002296E8CFF9010AD82A96089504D87FD4AA
:10077800EC81FD8144D4D7DF42D479D481DD8F0167
:10078800F80100D8C1C301D43AD46BD4EC81FD81FF
:1007980036D410DD229608950F920FB60F921F924D
:1007A8002F923F924F925F926F927F928F929F9279
:1007B800AF92BF92CF92DF92EF92FF920F931F9367
:1007C8002F933F934F935F936F937F938F939F9351
:1007D800AF93BF93EF93FF93E0916501F0916601AA
:1007E800C083D183ADB7BEB7A283B3830BD4FCDE7D
:1007F80037DFE0916501F0916601A281B381ADBF59
:10080800BEBFC081D181FF91EF91BF91AF919F9100
:100818008F917F916F915F914F913F912F911F9190
:100828000F91FF90EF90DF90CF90BF90AF909F9087
:100838008F907F906F905F904F903F902F901F9078
:100848000F900FBE0F901895E0916401E03089F089
:10085800F894EEE7F0E0D3D3E0916001F091610104
:100868006091620170916301F7D3E0E0E093640165
:100878007894EACFE8E2F4E0C2D3E6E6F3E0BFD347
:10088800EBEBF3E0BCD3E0E0EA9370DD089507D426
:10089800E0E0EA83EFE3EB836ED7EB85FC85EF3F7F
:1008A800AFEFFA0729F494D3E2E9F0E0FDD364C08E
:1008B800EF3FAFE7FA0729F48BD3E3E9F0E0F4D38D
:1008C8005BC0AC85AA2332F4F1D3A0D5F4D3F8D316
:1008D800EDE2EC93A885A73010F0E6E0E8871885EC
:1008E800F5D321F0F7D3FBD300D4FACF03D434D611
:1008F800E2D310E09DD3F9D3FDD30FD728F0EAD384
:10090800FFD3F3D31F5FF8CF103021F4D9D3E0E33E
:10091800EC9316C0DBD3A1F0DDD3E1D3F7D32FD509
:10092800E7D2E3D3E7D3B4D6A4D50E2FC9D3F4D3F3
:10093800D1D3F7D35FD6FAD327D507D6BCD3EACF1E
:10094800E885E030B1F0BCD3EEE2EC93E885E15005
:10095800E887EF5F71F0EAD3D3D3ADD3A7D389D5B6
:100968000E2FAED3D9D3E2D3DCD30ED5EED5A3D395
:10097800EDCFAE81BF8140D305D72D9608955D9BFD
:10098800FECFE881ECB921960895F5D61ED3DED4C2
:10099800309799F0AA81BB81D9D48F01309741F063
:1009A8000230E0E01E0740F0F80131978F01EAD2EB
:1009B8000CD3C1D3AE81A08303C0EE81EA93DFDFFD
:1009C800E1D6279608956BD3E0E8EA83EFE3EB835B
:1009D800D0D6EE85FF85EF3FAFEFFA0731F4B9D2F5
:1009E8000ED3E8E9F0E060D37AC0EF3FAFE7FA074B
:1009F80031F4AFD204D3E9E9F0E056D370C0AB8547
:100A0800A73010F0E6E0EB871B8560D319F09AD386
:100A18000AD3FBCF9CD3A1D621F430E093D303D3E0
:100A280021C03B8599D309F008F40AC08BD3FBD2C7
:100A380093D328F098D353D39BD33F5FF9CF09C002
:100A48008BD328F490D35CD393D33150F9CF7AD396
:100A5800EAD27DD35BD38CD37FD320F084D33FD32A
:100A680087D33F5F10E0EB85E117E0F086D337D3FB
:100A78004DD385D43DD2D7D2E5D275D309D6F9D492
:100A88000E2F80D349D34DD378D3B4D56CD37CD42F
:100A98005CD56ED3E12F1F5FE03029F773D3EEE208
:100AA800EC93E1CF75D3AA85A083303024F46AD3C0
:100AB800EDE2EC9331953A3044F06AD3BF01A32FAD
:100AC800EAE0FED3E05DDB01EC9362D3BF01A32F24
:100AD800EAE020D4E05DDB01EC9348D28DD250D619
:100AE80060960895EF972F9742D610E0FE01EC5AD2
:100AF800FF4F0190F081E02DE88BF98BDE01A65ABB
:100B0800BF4F19D3E4912E2FE03009F4A4C1E12F8F
:100B1800E03031F4253211F411E001C03FD39AC11D
:100B2800E130B9F4253211F439D393C112E0E0E091
:100B3800EB8B00E02D3211F401E08CC12B3219F45B
:100B4800EBE2EB8B87C1203219F4E0E2EB8B82C138
:100B580002C0E23039F450E013E0203311F40068A9
:100B680079C102C0E330A1F4203310F02A3308F031
:100B780009C0A52FEAE0EA9FF0015E2FE22FE053BB
:100B88005E0F68C140E02E3211F414E063C111C059
:100B9800E430A9F4203310F02A3308F00AC00062C8
:100BA800A42FEAE0EA9FF0014E2FE22FE0534E0F08
:100BB80051C12C3619F4026015E04CC103C0E53070
:100BC80009F048C1E22FE33639F4F4D2FAD2F2D26E
:100BD800A481AA93FDD23DC1E53411F0E53609F4AC
:100BE80002C0E63699F5FFD203D3B4D308D30CD3A9
:100BF800A985AA2322F0AB89AB3231F00EC006D307
:100C080005D4FDD2EDE2EB8B07FF04C0EB89EA9334
:100C1800DFD203C000D3AB89A08305FF46E02636A8
:100C280041F4F4D2ACD34A93EF85F889E8D12FDEAA
:100C380008C0ECD2A4D34A932A93E889F989DFD172
:100C4800C2DED1D2CCD16DD11E2F1BC0E33741F407
:100C5800DBD2E7D2EA87FB87C2D163D11E2F0AC055
:100C6800E037A1F4D1D2DDD2EA87FB87B8D163D1CE
:100C78001E2F08600F77403011F0411708F001C0AF
:100C8800142F40E0E0E0EA8B30E05EC0E43611F07B
:100C9800E93611F4046002C0E53791F4EAE0EA8B22
:100CA80001FF07C0E0E0FAEC6AE97BE361D21AE0F1
:100CB8001FC0E0E1F7E260E070E05AD215E018C02A
:100CC800E83511F4086003C0E83709F0C2C0E0E174
:100CD800EA8B01FF07C0E0E0F0E060E070E148D295
:100CE80018E006C0E0E0F0E160E070E041D214E016
:100CF800403011F00F7701C041E001FF05C084D2F8
:100D080077D2149627D30AC002FF04C07DD289D2B5
:100D1800C4D204C079D285D266277727EE83FF83B1
:100D28006887798702FF0FC0A985AA232AF46ED2A3
:100D3800A6D265D2EDE2EB8BEB89E03019F01F5FAC
:100D48004F5F01C00B7F342F00FD13C0151710F43F
:100D5800351708F00EC007FF08C002FF04C00B7F5C
:100D68002B89115001C020E301C020E217D2515055
:100D7800EDCF141780F4006102FF05C054D209F0CA
:100D8800515011504150E0E3EA9322D2503009F01B
:100D980051504150EECF312FEA89E030A1F4303084
:100DA80089F003FF03C037D2E49105C0AA85BB854B
:100DB800ED91AA87BB87EA930BD2503009F05150C6
:100DC8003150EDCF3DC040D280D22E2F2A3030F0A6
:100DD80003FF02C0295C01C0295A01C0205D04FD3F
:100DE8001DC0213348F4BFD1A130E0E0BE07E0E0E8
:100DF8008E07E0E09E0709F40BC0431740F4531731
:100E080010F000FF01C00EC020E207FF07C020E37A
:100E1800006102FF03C007D209F05150BFD1503022
:100E280009F05150315010D281D2E9D1EA899BD1D1
:100E3800FF276627772749D29BD189D18ED419F607
:100E480000FF07C0503029F05150E0E2EA93C0D1CA
:100E5800F9CF10E053CE92D4EF966D960895FF9295
:100E6800F82E229788D4DE0106D28D01E0E0EA83CD
:100E7800EB83DE011496FFD169D2C1D0ADD0FE015B
:100E88003696BDD082D0BBD02DDE7CD42496FF9080
:100E980008957B816A81F981E88177FB770F67FD87
:100EA8007160972F9E5781F078F0983190F4AA27B7
:100EB800BB27882708948795B795A7959A95D1F762
:100EC800EA23FB23682305C0E8947727EE27FF274A
:100ED80066276F77769508F4606877F9A991B991D4
:100EE80089919991EA17FB076807790797FB089595
:100EF800B1D145D2CEDFA1D011F4ACD105C0EEF707
:100F0800A6D096D041D221D324960895E991F9919B
:100F1800A991B991CD0105900D920020E1F7FC014E
:100F28000895A991B991EE27FF276D91662311F0D5
:100F38003196FBCF0895AA27BB27E991F99105902F
:100F4800002011F01196FBCFFD01089520E030E05C
:100F58000895E885F9850895FA93EA937FD9AF0152
:100F68000895AA85BB854A175B070895A885B985A2
:100F78000895EE81FF810895A885B9851296ED93AD
:100F8800FC930895ED93FC930895E0E0F0E0089554
:100F9800D001F8CFE1E0F2D30895A281B381E9DF6F
:100FA800F1CF1296D3D1AE81BF811296ED93FC9307
:100FB8000895EA85FB850895D9DFC8D10895AE81E3
:100FC800BF8108950D911C910895AC81BD8108954C
:100FD800D0DFFA93EA9308951A930A930895E9DF04
:100FE800FA93EA930895AE85BF8508951197AE8761
:100FF800BF870895F8DFFACFE0E0EC930895FA93FD
:10100800EA930895A0E6B1E0ABD1EF5FFF4F6F4FD1
:101018007F4FB0D1E1E0E09364010895EA81FB815C
:101028006C817D810895EC83FD836E837F830895B1
:10103800E0E0F0E060E87FE30895E883F9836A83FD
:101048007B830895EC81FD816E817F810895A8815D
:10105800B9818A819B81089592D184E000DF269628
:101068000895EDE2F3E0CBCF149670D10895E9E24C
:10107800F3E0C5CFC4DFE3EEF2E0C1DF5DC9E09184
:101088006503AAE0EA9FF00108950F01AA81BB81D8
:101098000895E0916503A6E0EA9FF001089524977A
:1010A800E0E0E883E9830895AADF30CFE985FA858F
:1010B8006B857C850895E987FA876B877C87089517
:1010C8007EDF1196AE83BF8311970895E12F1150EB
:1010D800E0300895AA81BB818C819D810895EDEC53
:1010E800FCEC6CEC7DE386D20895EA83FB836C8389
:1010F8007D83089593DFA985BA858B859C8508959E
:10110800E0E0F0E060E271E475D20895A0E0B0E0BC
:1011180080E09FE321D20895E02FE05DEC93E02F7B
:101128000895FF2766277727DDD10895A985BA8511
:101138008B859C850895ED91FD913196FE93EE93F4
:1011480031970895AC81BD818E819F81D9CFEC857F
:10115800FD856E857F85089575DFAC85BD858E8597
:101168009F85DBD20895AC85BD858E859F850895C2
:10117800EC87FD876E877F870895AC81BD818E815E
:101188009F810895F3DE1196A887B987119708956E
:10119800E0DE3196E887F987319708952A93FE01B2
:1011A800E95AFF4F0190F081E02D29DFFE01739687
:1011B80026DFEBCBFE01E85AFF4F0190F081E02DCE
:1011C80008953497DE01A85ABF4FED93FC93089514
:1011D800FE01E95AFF4F0190F081E02D10DFFE017A
:1011E80073960DDFD2CBFE017496EA87FB870895CC
:1011F800DE01A85ABF4F0D90BC91A02D0895EE8333
:10120800FF83688779870895D5DFDBCFEE81FF817B
:10121800688579850895CDDE3196EA87FB87319711
:101228000895E6DF21CF0B7FEB89EA93FE01E95AA7
:10123800FF4F0190F081E02DE2DEFE01E95AFF4FF9
:10124800DEDEA3DB5030089582DFAE81BF81888562
:1012580099850895E881F9816A817B810895E991EA
:10126800F991309639F08AEF90E00197F1F7A89557
:101278003197C9F708950024AF0DB01D0895F09572
:1012880060957095E195FF4F6F4F7F4F0895FE2F42
:10129800FF0FFF0B6F2F7F2F08956F2F660F660BC1
:1012A800762F0895002498E0AA0F001C0E1A10F457
:1012B8000E0E01C0A1609A95B9F7EA2FA02D0895E6
:1012C80039D0F0DF0EF4E19508953F934F935F9383
:1012D800002411244427552730E2AA0FBB1F881F7A
:1012E800991F001C111C441F551F0E1A1F0A460B7C
:1012F800570B28F40E0E1F1E461F571F01C0A16072
:101308003A9559F7FD01BC01D001CA015F914F918F
:101318003F910895E894A7FF02C0A1956894E7FD5E
:10132800E195C0DFEA2F0EF4E1950895CEDFFD01C7
:10133800BC010895E894E7FF02C0E1956894A7FF0F
:1013480004C0A19500F8039400FA0895ED91FC916A
:1013580011970895ED91FD916D917C9113970895E2
:10136800ED91FD916D917D910895ED93FD936D93B0
:101378007C9308957E936E93FE93EE9308957A93EB
:101388006A93FA93EA930895182E862F612D192EE1
:10139800972F712D1B2EBF2FF12D1A2EAE2FE12D59
:1013A8000895129602D0BF011297119602D0FE2F0F
:1013B8001197E199FECFFF93FFB7F894AEBBBFBB7F
:1013C800E09AEDB3FFBFFF91089507D012960F0181
:1013D800FB0103D0F0011297089507D01196EF93FF
:1013E800EF2F03D0EF9111970895E19B02C0A895C4
:1013F800FCCF9FB7F894AEBBBFBBE09A8DB3E8179C
:1014080019F0EDBBE29AE19A9FBF089530976040CA
:10141800704009F070580895552342F4503811F47B
:10142800E0FF04C03196691F791F6BF050E8572719
:1014380011F45F93CDC05F3F31F0660F000C5795F4
:101448006795752F08955F9300200AF0CDC0C6C038
:1014580050E8192E1522880F991F9527550F879543
:1014680050E8072E0522660F771F7527550F6795D9
:101478000895689401C0E8945F93F2DF703818F01B
:101488007F3F08F4A5C056E1571BAAF45195583080
:101498000EF4593030F0EFEFFFEF6FEF7FE777F999
:1014A8001AC077275523B9F0EE0FFF1F661F771F65
:1014B8005A95D1F710C07727583028F0EF2FF62F1C
:1014C800672F5850F9CF552331F076956795F795E2
:1014D800E7955A95D1F700200AF4D1DE5F91089577
:1014E800689401C0E894309760407040B1F00024DF
:1014F80026F0772312F40094C2DE172E7EE1112025
:1015080032F07A95EE0FFF1F661F111CF9CFEF2FEF
:10151800F62F612D5F938ADF5F9108954F93AF0196
:10152800FD01DA01AB01BC01CA01402D012C142ECA
:101538004F910895EA0FFB1F681F0895E095F095F5
:101548006095EF5FFF4F6F4F08955F9381DF90388D
:1015580071F150E8152604C05F937ADF903839F1AD
:10156800703821F1572F591B13F112F4D7DFFACF36
:10157800583118F0AA27BB278827583028F0AB2FF6
:10158800B82F88275850F9CF552329F08695B79555
:10159800A7955A95D9F7502D512562F0CBDF38F42D
:1015A8006795F795E795739513F41EC0B7DF3EDF8F
:1015B8005F910895EA1BFB0B680B51F010F400943F
:1015C800BDDF6623A2F3EE0FFF1F661F7A95CBF7E8
:1015D800EE27FF27662777275F910895EFEFFFEF44
:1015E8006FE77FEF5F910895EFEFFFEF6FE77FE71A
:1015F8005F9108955F932CDF703851F3903841F371
:1016080001240894791F23F41CF300203AF3ECCF4B
:101618000F921F932F933F934F93112722279927B8
:10162800689FA0018F9F302D410D591F6B9F300D72
:10163800411D591F8E9F27D0BF9F25D06A9F23D059
:10164800BE9F1DD0AF9F1BD0AE9F110D291F391F04
:10165800491F591FE32FF42F652F522F4F913F91A8
:101668002F911F910F9066232AF0550FEE1FFF1F31
:10167800661F02C073954BF2CFDE5F910895100D7F
:10168800211D391F02C0200D311D491F591F089502
:101698005F93DEDE703821F411200AF49FCFA4CFC7
:1016A800903809F495CF01240894970B1BF4D4F3D0
:1016B8000020F3CF792F1F932F933F934F9311243B
:1016C8001127222733274427552790E2AE17BF0753
:1016D8008607410730F0AE1BBF0B860B410B089401
:1016E80001C08894551F221F331F111CAA1FBB1F3E
:1016F800881F441F9A9551F7F901612D4F913F9129
:101708002F911F91662332F0550FEE1FFF1F661FA2
:101718007A9543F281DE5F91089599239AF07723B1
:1017280042F0971748F029F4AE17BF07860720F054
:1017380031F098948894089598940894089518948A
:10174800889408957723C2F7971798F3A9F7EA17AB
:10175800FB07680788F399F3ECCF30976040704037
:10176800089500240A160B060806090608955A93D8
:101778004A933A932A931A930A9308955D814C8168
:101788003B812A8119810881089509911991089549
:00000001FF
